:100000000020001071010000350200003D020000D8
:1000100000000000000000000000000000000000E0
:100020000000000000000000000000004502000089
:1000300000000000000000004D020000458D00009F
:100040005D0200005D0200005D0200005D02000034
:100050005D0200005D0200005D0200005D02000024
:100060005D0200005D0200000000000000000000D2
:1000700000000000000000005D0200005D020000C2
:100080005D0200005D0200005D0200005D020000F4
:100090005D0200005D0200000000000000000000A2
:1000A0005D0200005D0200005D0200005D020000D4
:1000B0000000000000000000000000000000000040
:1000C00090DF0000000000106400000090DF0000DE
:1000D000000000200000000090DF00000040002031
:1000E0000000000064000010641000000000002008
:1000F00000000000004000200000000080B588B033
:1001000000AFF860B9607A60BB68FB61FB68BB61F7
:1001100000237B610AE0FB691A1DFA61BA69111DAF
:10012000B96112681A607B6904337B617A697B6804
:100130009A42F0D3BD4608B080BDC04680B584B0B9
:1001400000AF786039607B68FB600023BB6007E02C
:10015000FB681A1DFA6000221A60BB680433BB609A
:10016000BA683B689A42F3D3BD4604B080BDC0462E
:1001700080B586B000AF284B3B613B691B68C0224D
:1001800012051A433B691A60244B7B6116E07B69B8
:100190001A1D7A611B68FB607B691A1D7A611B68F6
:1001A000BB607B691A1D7A611B687B60F968BA685D
:1001B0007B68081C111C1A1CFFF7A0FF7A69184BFA
:1001C0009A42E4D30FE07B691A1D7A611B68BB6019
:1001D0007B691A1D7A611B687B60BA687B68101C9A
:1001E000191CFFF7ABFF7A690E4B9A42EBD30E4B0B
:1001F0001B6810331B683B603B681B681A1C0B4B69
:100200001A603B6804331B681A1C094B1A6008F01B
:1002100027FE0AF015F9FEE780800440C0000000C8
:10022000E4000000FC000000F81FFF1F740F001026
:10023000700F001080B500AFFEE7C04680B500AF7C
:10024000FEE7C04680B500AFFEE7C04680B500AF10
:10025000FEE7C04680B500AFFEE7C04680B500AF00
:10026000FEE7C046FFFFFFFFFFFFFFFFFFFFFFFFAF
:10027000FFFFFFFFFFFFFFFFFFFFFFFFFFFFFFFF8E
:10028000FFFFFFFFFFFFFFFFFFFFFFFFFFFFFFFF7E
:10029000FFFFFFFFFFFFFFFFFFFFFFFFFFFFFFFF6E
:1002A000FFFFFFFFFFFFFFFFFFFFFFFFFFFFFFFF5E
:1002B000FFFFFFFFFFFFFFFFFFFFFFFFFFFFFFFF4E
:1002C000FFFFFFFFFFFFFFFFFFFFFFFFFFFFFFFF3E
:1002D000FFFFFFFFFFFFFFFFFFFFFFFFFFFFFFFF2E
:1002E000FFFFFFFFFFFFFFFFFFFFFFFFFFFFFFFF1E
:1002F000FFFFFFFFFFFFFFFFFFFFFFFFFFFFFFFF0E
:1003000090B583B000AFFB1D00221A70FB1D1C7856
:1003100009F02AF8031CDAB20C4B1A55FB1D1A78A7
:10032000FB1D01321A70FB1D1B78013B074AD35C91
:100330000D2BEBD1FB1D1B78013B044A0021D1544E
:10034000024B181CBD4603B090BDC0466C000010A7
:1003500080B582B000AF7860134B0022DA70124B88
:1003600001225A717B681A78104B1A707B685A7890
:100370000E4B5A707B689A780C4B9A707B68DA78CF
:100380000A4BDA700A4B0B4A1A800B4A0B4B101CB3
:10039000191C0BF05DFE022001211522002301F043
:1003A00057FDBD4602B080BDCC010010C401001055
:1003B000C8010010B888FFFF36020010D8D0000036
:1003C000F0B5AFB004AF78609023FB1800221A801C
:1003D00000239422BA1813605823FB1800221A60D5
:1003E00000225A6000229A600022DA6000221A611C
:1003F00000225A6100229A610022DA6100221A6208
:1004000000225A6200229A620022DA6200221A86D0
:1004100000237B6500233B65D2239B00181C01F061
:1004200075F9031E132B01D100F0F8FB04DC002B3F
:1004300000D192E300F01BFC172B04D01C2B00D141
:100440006EE300F014FCDB4B1B78002B0DD1DA4B74
:10045000181C02210AF0EEFDD84AD94B101C191CB9
:100460000BF0F6FDD34B01221A70D64B1B78002BF4
:1004700000D187E2D34B00221A70D34B181C0AF02C
:10048000D9FDD24B181C0AF0D5FDD14B181C0AF02F
:10049000D1FDD04B181C0AF0CDFDCF4B181C0AF033
:1004A000C9FDCE4B1B78412B01D1CD4B00E0CD4B8C
:1004B000CD4A101C191C0AF0BDFDCC4B1B78012B3A
:1004C00001D1CB4B00E0CB4BCB4A101C191C0AF0DE
:1004D000B1FDCA4B181C0AF0ADFDC94B181C0AF03F
:1004E000A9FDC84B181C0AF0A5FDB94B181C0AF051
:1004F000A1FD08F039FF021C9323FB181A70932307
:10050000FB181B78312B5FD1B84B1B78002B18D10F
:100510005823FA18BC4B101C191C0AF065F8582314
:10052000FB18181C0BF0B6FD031C9BB25822BA181E
:100530000220111C1A1C01F0EFFFB44B01221A70AB
:1005400020E23823FB180120191C02F0C5FB3823D8
:10055000FB189B793B6038217B18DB791E1C382106
:100560007B181B7A1D1C38217B185B7A1C1CA84B3E
:100570001B881B0A9BB2DBB2181CA54B1B88DBB285
:10058000191C5823FA18A34B00950194029003916B
:10059000101C191C3A68331C0AF026F85823FB1863
:1005A000181C0BF077FD031C9BB25822BA180220CE
:1005B000111C1A1C01F0B0FF944B01221A70964BCB
:1005C00001221A70C046DDE19323FB181B78352BFE
:1005D0005FD1864B1B78002B18D15823FA188A4B11
:1005E000101C191C0AF000F85823FB18181C0BF0FB
:1005F00051FD031C9BB25822BA180220111C1A1C70
:1006000001F08AFF814B02221A70BBE12023FB1804
:100610000120191C02F060FB2023FB189B793B6032
:1006200020217B18DB791E1C20217B181B7A1D1CC6
:1006300020217B185B7A1C1C754B1B881B0A9BB204
:10064000DBB2181C724B1B88DBB2191C5823FA183A
:10065000704B0095019402900391101C191C3A688C
:10066000331C09F0C1FF5823FB18181C0BF012FDB6
:10067000031C9BB25822BA180220111C1A1C01F04C
:100680004BFF624B02221A70634B01221A70C04664
:1006900078E19323FB181B78362B5FD1534B1B78E3
:1006A000002B18D15823FA18574B101C191C09F0AD
:1006B0009BFF5823FB18181C0BF0ECFC031C9BB28F
:1006C0005822BA180220111C1A1C01F025FF4F4BAA
:1006D00003221A7056E10823FB180120191C02F0AE
:1006E000FBFA0823FB189B793B6008217B18DB7918
:1006F0001E1C08217B181B7A1D1C08217B185B7AA5
:100700001C1C434B1B881B0A9BB2DBB2181C404BC2
:100710001B88DBB2191C5823FA183E4B0095019434
:1007200002900391101C191C3A68331C09F05CFFFD
:100730005823FB18181C0BF0ADFC031C9BB258226D
:10074000BA180220111C1A1C01F0E6FE2F4B0322DE
:100750001A70314B01221A70C04613E19323FB1823
:100760001B78322B5ED115497A689023FB18081C40
:10077000111C1A1C05F064FC284A7B68101C191C0B
:100780000AF058FC5423FA185023FB180520111CBA
:100790001A1C08F003F8396D7C6D7A6D3B6DD31A25
:1007A0001F4A101C221C0AF045FC064B01221A703D
:1007B000E8E0C04664000010DCD000003602001003
:1007C000D8D0000067000010F0D0000020D1000059
:1007D00034D1000060D1000080D100006A00001018
:1007E00098D10000A0D10000A8D100006B0000103B
:1007F000ECD10000F4D10000FCD100002CD20000AC
:1008000044D2000060D2000074D200003007001013
:10081000C80100107CD200006600001098D20000D1
:10082000A0D200009323FB181B78332B51D1DE4B51
:10083000181C0AF0FFFBDD4B181C0AF0FBFB08F04C
:1008400093FD021C9323FB181A709323FB181B784B
:10085000312B19D15823FA18D54B101C191C4122E1
:1008600009F0C2FED34B41221A705823FB18181C02
:100870000BF010FC031C9BB25822BA180220111C6A
:100880001A1C01F049FE23E09323FB181B78322B3E
:1008900019D15823FA18C64B101C191C492209F00B
:1008A000A3FEC44B49221A705823FB18181C0BF0E6
:1008B000F1FB031C9BB25822BA180220111C1A1C0F
:1008C00001F02AFE04E0BC4B181C0AF0B3FBB6E7AB
:1008D00058E09323FB181B78342B28D1B74B181CF6
:1008E0000AF0A8FBB64B181C0AF0A4FB08F03CFD6C
:1008F000021C9323FB181A709323FB181B78312BCF
:1009000003D1B04B01221A700DE09323FB181B7822
:10091000322B03D1AB4B00221A7004E0A64B181CFB
:100920000AF088FBE2E7A84B01221A702AE0932321
:10093000FB181B78372B20D1A44B181C0AF07AFB2C
:10094000FFF7DEFC041CA24AA24B101C191C221C3F
:1009500009F04AFE9E4B181C06F002FD031E04D04F
:100960009D4B181C0AF066FB03E09C4B181C0AF018
:1009700061FB954B01221A7004E08F4B181C0AF0A2
:1009800059FBB6E5964B1B78002B61D0944B0022A7
:100990001A70944B1B78022B19D0032B35D0012BE6
:1009A00051D15823FA18904B101C191C09F01CFE49
:1009B0005823FB18181C0BF06DFB031C9BB258222C
:1009C000BA180220111C1A1C01F0A6FD40E0874B4A
:1009D000181C0AF02FFBFFF793FC041C5823FA188D
:1009E000834B101C191C221C09F0FEFD5823FB1818
:1009F000181C0BF04FFB031C9BB25822BA180220A4
:100A0000111C1A1C01F088FD22E07A4B181C0AF018
:100A100011FBFFF775FC041C5823FA18764B101CC9
:100A2000191C221C09F0E0FD5823FB18181C0BF0C0
:100A300031FB031C9BB25822BA180220111C1A1C4D
:100A400001F06AFD04E06D4B181C0AF0F3FAC04691
:100A5000022001F08FF8031C1A1C9023FB181A8047
:100A60009023FB181B88002B59D07A6880239B00A9
:100A7000101C00211A1C09F0F0FC9023FB181A88A6
:100A800080239B009A4203D99023FB185C4A1A806A
:100A90009023FB181B887A680220111C1A1C01F095
:100AA0007FFE031C9422BA1813609423FB181B6862
:100AB0007A68D31800221A709023FB181B881A1C1E
:100AC0009423FB181B689A421ED09423FB181B68C2
:100AD000002B02D1002300F006FC9423FB181B68B6
:100AE000002B11DA474A9423FB181B68101C0221C3
:100AF0001A1C0AF09FFA022001F0BEFA9423FB1898
:100B00001B68DBB200F0EFFB3F4A7B68101C191C2E
:100B10000AF090FA7B68181C00F022FCA7E0A6E01F
:100B20003A4B181C02210AF085FA022001F072FCEF
:100B3000031C9422BA1813609423FB181B68012B22
:100B400005D09423FB181B68DBB200F0CCFB304BC4
:100B5000181C02210AF06EFA89E02E4B181C0221A3
:100B60000AF068FA022001211522002301F070F931
:100B7000031C9422BA1813609423FB181B68022BE1
:100B800011D0254A9423FB181B68101C02211A1C43
:100B90000AF050FA022001F06FFA9423FB181B6848
:100BA000DBB200F0A0FB62E0E0D20000ECD200007B
:100BB000F8D200006A00001004D3000014D3000033
:100BC00020D300006B0000106700001030D300003D
:100BD0009A02001040D3000048D3000060D3000008
:100BE000680000103007001070D3000078D30000B8
:100BF00088D3000094D30000A4D30000B0D3000039
:100C0000FF010000D4D30000ECD3000000D40000AA
:100C100010D400001CD400002CD40000C74B181CBA
:100C200002210AF007FAC64B1B88C64A0220111C93
:100C30001A1C01F0F7FA031C9422BA1813609423CB
:100C4000FB181B68012B09D0BF4B181C02210AF0AE
:100C5000F1F99423FB181B68DBB244E3BB4B002281
:100C60001A70BB4B181C02210AF0E4F9C046DA23C3
:100C70009B00181C00F04AFD031E132B00D1E7E275
:100C800003DC002B00D164E22CE3172B03D01C2BD8
:100C900000D142E226E3AF4B1B78002B07D1AE4BCD
:100CA000181C03210AF0C6F9AA4B01221A70AB4B9B
:100CB0001B78002B00D12FE2A94B5B78022B00D1CF
:100CC00072E0032B00D125E1012B00D01FE2A54BE0
:100CD000181C0AF0AFF9032000F04CFF031C1A1C8B
:100CE0009023FB181A809023FB181B88002B5AD0E6
:100CF0009D4B181C0AF09EF97A6880239B00101CFB
:100D000000211A1C09F0A9FB9023FB181A888023E4
:100D10009B009A4203D99023FB18944A1A8090238F
:100D2000FB181B887A680320111C1A1C01F038FD7F
:100D3000031C9422BA1813609423FB181B687A686A
:100D4000D31800221A709023FB181B881A1C9423B6
:100D5000FB181B689A421CD09423FB181B68002BBD
:100D600001D10023BFE29423FB181B68002B10DA8B
:100D70007F4A9423FB181B68101C02211A1C0AF0DE
:100D800059F9032001F078F99423FB181B68DBB2B2
:100D9000A9E2784A7B68101C191C0AF04BF96F4BCA
:100DA00000221A70B8E1B7E16E4B181C0AF042F944
:100DB000714B181C0BF06EF9031E012B08D16F4903
:100DC0006F4A704B081C111C1A1C09F00DFC05E041
:100DD0006A486D49684A6B4B09F006FC6B4A674BE1
:100DE000101C191C012205F0E5FA031C191C684AA5
:100DF000AB23DB00D154664AAB23DB00D35C002B72
:100E00006DD1634AA0235B00D3589C22BA181360AB
:100E1000604B181C0AF00EF97A6880239B00101CA6
:100E200000211A1C09F019FB9C23FB181A68802367
:100E30009B009A4205D980239B00A422BA18136014
:100E400005E09C23FB181B68A422BA1813604F48C6
:100E50007968A423FB181A688C23FB1805F0FAFCA8
:100E6000031C191C4A4AAB23DB00D154484AAB236C
:100E7000DB00D35C002B00D01CE0474B181C0AF0B1
:100E8000D9F88C23FB181B689BB27A680320111CCD
:100E90001A1C01F041FB8C23FB181B689C22BA181A
:100EA0001268D31A9C22BA1813609C23FB181B6883
:100EB000002BB1D1394B181C0AF0BCF8334B181C6D
:100EC00006F05AF8031C191C314AAB23DB00D1543D
:100ED000224B00221A70032001F09CFA1CE12C4ADC
:100EE000AB23DB00D35C1A1C2D4B181C111C0AF021
:100EF000A1F8264B181C06F03FF8031C191C244AC5
:100F0000AB23DB00D154154B00221A70032001F0F3
:100F100081FA01E1134B181C0AF08CF8164B181CCF
:100F20000BF0B8F8031E012B3CD11449144A154BA1
:100F3000081C111C1A1C09F057FB39E044D40000AE
:100F4000040000100000001050D4000064000010E5
:100F500064D400006500001078D40000690000101F
:100F60003007001098D40000A4D40000FF01000056
:100F7000D4D30000ACD40000360200109A02001056
:100F8000C0D400006C000010C4D4000000030010A6
:100F9000CC010010CCD40000E4D40000E8D4000060
:100FA00000D50000D248D349D34AD44B09F01CFBEA
:100FB000D34ACF4B101C191C0A2205F0FBF9031C65
:100FC000191CD04AAB23DB00D154CE4AAB23DB0043
:100FD000D35C002B00D08FE0CB4B181C0AF02AF812
:100FE000032000F0C7FD031C9822BA181360982351
:100FF000FB181B68002B63D07A6880239B00101CB1
:1010000000211A1C09F029FA9823FB181A6880237A
:101010009B009A4205D980239B00A022BA18136036
:1010200005E09823FB181B68A022BA181360A023C0
:10103000FB181B689BB27A680320111C1A1C01F074
:10104000AFFB031C9422BA1813609423FB181A6890
:10105000AB4879688C23FB1805F04CFD031C191C68
:10106000A84AAB23DB00D1548C23FB181B689822C1
:10107000BA181268D31A9822BA181360A14AAB237F
:10108000DB00D35C002B04D0A04B181C09F0D2FF6E
:1010900006E09823FB181B68002B00D100E0ABE7AB
:1010A000984AAB23DB00D35C002B04D0974B181C71
:1010B00009F0C0FF0EE0964B181C09F0BBFF08E0DA
:1010C000DA239B00181C00F021FB031E172B00D015
:1010D00000E085E78F4B181C09F0ACFF884B181C0B
:1010E00005F04AFF031C191C864AAB23DB00D154D0
:1010F000894B00221A700FE0824AAB23DB00D35CDD
:101100001A1C864B181C111C09F094FF04E0844B38
:10111000181C09F08FFFC046E4E0824B181C032125
:1011200009F088FF032001F075F9031C9422BA1816
:1011300013609423FB181B68012B04D09423FB1825
:101140001B68DBB2CFE0784B181C032109F072FF5B
:10115000C8E06C4B1B79012B00D078E0694B5B79C0
:10116000002B38D1714B1B881A1C714B181C0321A2
:1011700009F060FF6D4B1B88032001211A1C00231E
:1011800000F066FE031C9422BA1813609423FB1827
:101190001B68032B10D0674A9423FB181B68101C94
:1011A00003211A1C09F046FF032000F065FF942379
:1011B000FB181B68DBB296E05C4B1B8801339AB2CC
:1011C0005A4B1A80594B1B885B4A93423BD9574B69
:1011D0005A4A1A8037E0554B1B881A1C544B181C6E
:1011E000032109F027FF514B1B88032001211A1C02
:1011F000002300F02DFE031C9422BA1813609423E0
:10120000FB181B68032B10D04A4A9423FB181B6859
:10121000101C03211A1C09F00DFF032000F02CFF05
:101220009423FB181B68DBB25DE0404B1B88013345
:101230009AB23E4B1A803D4B1B883F4A934202D9DB
:101240003A4B3E4A1A802F4B02221A714AE049E07B
:101250003B4B181C032109F0EDFE2A4B5B79012B57
:101260001ED1032000F070FF031C9422BA181360F3
:101270009423FB181B68012B09D0324B181C032147
:1012800009F0D8FE9423FB181B68DBB22BE02E4B31
:1012900001221A702D4B181C032109F0CBFE1DE012
:1012A0002B4B1B882B4A0320111C1A1C00F0BAFF81
:1012B000031C9422BA1813609423FB181B68012B9B
:1012C00009D0254B181C032109F0B4FE9423FB1808
:1012D0001B68DBB207E01C4B01221A701F4B002277
:1012E0001A70C0460023181CBD462BB0F0BDC04686
:1012F0009A020010C4D40000360200106C000010E6
:1013000000030010CC010010CCD4000018D5000060
:10131000E4D400002CD500006900001000D50000C6
:1013200044D5000000D4000010D40000C801001013
:1013300068D500002CD4000050C30000B888FFFF1F
:1013400044D4000088D50000680000109CD500003F
:101350002C0700102807001050D400006500001072
:1013600090B58BB000AF78600823FB1800221A609C
:1013700000225A6000229A600022DA6000221A617C
:1013800000225A6100229A6100229A837B681B78AE
:10139000303B9BB2642253439AB27B6801331B7883
:1013A000303B9BB2191C8900CB18DB189BB2D318B9
:1013B0009AB27B6802331B789BB2D3189AB2262369
:1013C000FB18303A1A802623FB181B88E22B00D129
:1013D000ADE007DCC82B71D0DC2B0DD0962B00D1F3
:1013E00082E0BFE0E62B4BD04C22FF32934225D067
:1013F000E32B00D19FE0B5E0634B181C09F01AFE07
:10140000FEF77EFF041C0823FA18604B101C191C01
:10141000221C09F0E9F85E4B181C09F00BFE0823AA
:10142000FB18181C0AF036FE031C9BB20822BA18DF
:101430000220111C1A1C01F06FF89FE0554B181C7C
:1014400009F0F8FDFEF75CFF041C0823FA18524B64
:10145000101C191C221C09F0C7F84D4B181C09F070
:10146000E9FD0823FB18181C0AF014FE031C9BB2AC
:101470000822BA180220111C1A1C01F04DF87DE058
:10148000464B181C09F0D6FD0823FA18444B101CD3
:10149000191C412209F0A8F8424B41221A70082376
:1014A000FB18181C0AF0F6FD031C9BB20822BA18A0
:1014B0000220111C1A1C01F02FF85FE03A4B1B7838
:1014C000012B0DD1394B1B78002B09D0384B012251
:1014D0005A71374B01221A71344B00221A704DE0B9
:1014E000344B01221A7049E0334B1B78022B11D088
:1014F000032B08D0012B14D12F4B01225A702F4BF4
:1015000001221A7012E02C4B03225A702B4B01223D
:101510001A700BE0284B02225A70284B01221A70D5
:1015200004E0274B181C09F085FDC04626E0214B3E
:1015300001221A7022E07B68181C00F04BF8031C93
:10154000013304D11F4B181C09F074FD16E01E4B2B
:10155000181C09F06FFD164B00225A71144B012222
:101560001A710BE02623FB181B88184A101C191C43
:1015700009F060FD164B01221A70C0460123181CA9
:10158000BD460BB090BDC046ACD50000C4D5000030
:10159000D0D50000D4D50000F0D50000FCD5000067
:1015A000F8D200006A0000106B0000106600001006
:1015B000CC01001067000010300700106900001017
:1015C000B0D3000018D600002CD6000044D600008E
:1015D00068000010F0B587B002AF78600023BB60F0
:1015E0007A68434B101C191C0AF07EFD0023FB6037
:1015F0002CE0FB68002B07D13E4B0020191C0AF0A1
:1016000073FD031CBB6006E03B4B0020191C0AF075
:101610006BFD031CBB60BB68181C0A210AF0E8FCC8
:10162000031CD9B2354AFB68D3180A1C1A70BB6870
:10163000002B08D1324A7B68101C191C09F0FAFCF7
:1016400001235B4250E0FB680133FB60FB68032B26
:10165000CFDD2C4B00221A800023FB6028E0254BB5
:101660000020191C0AF040FD031CBB60254B1B88A1
:101670001B029AB2234B1A80BB68181C0A210AF07D
:10168000B7FC031C9AB21F4B1B88D3189AB21D4B90
:101690001A80BB68002B08D1194A7B68101C191CE2
:1016A00009F0C8FC01235B421EE0FB680133FB60CC
:1016B000FB68012BD3DD114B1B781E1C0F4B5B7895
:1016C0001D1C0E4B9B781C1C0C4BDB78191C0D4B06
:1016D0001B881A1C0C4B00910192181C311C2A1CEF
:1016E000231C09F0A7FC0023181CBD4605B0F0BD63
:1016F0005CD6000060D6000064D600002807001009
:1017000068D600002C0700107CD6000090B585B08C
:1017100000AF78602D4B9B6898472C4B1B6998470E
:101720002A4B1B6A002B03D0284B5B6A002B1AD173
:10173000264BDB697968FF2212040A40120CD2B2F0
:10174000101C9847214BDB697968FF2212020A407E
:10175000120AD2B2101C98471C4BDB697A68D2B2CD
:10176000101C98471DE07A68FF231B0413401B0CD4
:10177000DAB20C23FB181A707A68FF231B0213409D
:101780001B0ADAB20C23FB185A707B68DAB20C23FE
:10179000FB189A700D4B5B6A0C22BA18101C0321BF
:1017A00098470A4B9B690F22BC189847031C23706B
:1017B000064B5B699847054BDB6898470F23FB187E
:1017C0001B78181CBD4605B090BDC046080000102F
:1017D00080B584B000AF78600A1CFB1C1A702D4BDA
:1017E0009B6898472B4B1B6998477B6804221343DF
:1017F0007B60284B5B6A002B20D1264BDB69796824
:10180000FF2212040A40120CD2B2101C9847214B3E
:10181000DB697968FF2212020A40120AD2B2101C58
:1018200098471C4BDB697A68D2B2101C9847194B59
:10183000DB69FA1C1278101C984722E07A68FF23B3
:101840001B0413401B0CDAB20C23FB181A707A68C5
:10185000FF231B0213401B0ADAB20C23FB185A7039
:101860007B68DAB20C23FB189A700C23FB18FA1C65
:101870001278DA70074B5B6A0C22BA18101C04212C
:101880009847044B5B699847024BDB689847BD4615
:1018900004B080BD0800001090B587B000AFF860BC
:1018A000B960BB1D1A803A4B9B689847384B1B693F
:1018B0009847374B1B6A002B03D0354B5B6A002BD4
:1018C00037D1334BDB69F968FF2212040A40120C4E
:1018D000D2B2101C98472E4BDB69F968FF22120226
:1018E0000A40120AD2B2101C9847294BDB69FA68E9
:1018F000D2B2101C98471623FB1800221A8010E061
:101900001623FB181B88BA68D418214B9B6998478B
:10191000031C23701623FB181A881623FB180132A8
:101920001A801623FA18BB1D12881B889A42E7D327
:1019300025E0FA68FF231B0413401B0CDAB21023C6
:10194000FB181A70FA68FF231B0213401B0ADAB255
:101950001023FB185A70FB68DAB21023FB189A7038
:101960000B4B5B6A1022BA18101C03219847084BD6
:101970001B6AB968BA1D1288081C111C9847044BD1
:101980005B699847024BDB689847BD4607B090BD3E
:101990000800001080B586B000AFF860B960BB1DCC
:1019A0001A803A4B9B689847384B1B699847FB68ED
:1019B00004221343FB60354B5B6A002B37D1334B5A
:1019C000DB69F968FF2212040A40120CD2B2101C23
:1019D00098472E4BDB69F968FF2212020A40120A6F
:1019E000D2B2101C9847294BDB69FA68D2B2101C9E
:1019F00098471623FB1800221A8010E0234BDB695E
:101A00001622BA181288B9688A181278101C9847DA
:101A10001623FB181A881623FB1801321A80162386
:101A2000FA18BB1D12881B889A42E7D325E0FA6892
:101A3000FF231B0413401B0CDAB21023FB181A708F
:101A4000FA68FF231B0213401B0ADAB21023FB18AB
:101A50005A70FB68DAB21023FB189A700B4B5B6A62
:101A60001022BA18101C03219847084B5B6AB9680A
:101A7000BA1D1288081C111C9847044B5B699847D3
:101A8000024BDB689847BD4606B080BD08000010D9
:101A900090B585B000AF021CFB1D1A700E23FB1819
:101AA00000221A800C23FB1800221A80FB1D1B78D1
:101AB0009B000133DB008022920194466344181C92
:101AC000FFF724FE031C1A1C0C23FB181A800C239E
:101AD000FB181B881B029CB2FB1D1B789B0001336B
:101AE000DB008422920194466344181CFFF70EFE2B
:101AF000031C9AB20C23FB18A2181A800C23FB18A3
:101B00001B88002B27D0FB1D1B789B000133DB00BB
:101B10008022920194466344181CFFF7F7FD031CD2
:101B20001A1C0E23FB181A800E23FB181B881B029D
:101B30009CB2FB1D1B789B000133DB0084229201C9
:101B400094466344181CFFF7E1FD031C9AB20E2370
:101B5000FB18A2181A800E23FA180C23FB181288FF
:101B60001B889A42A2D10E23FB181B88181CBD4665
:101B700005B090BD90B585B000AF021CFB1D1A707A
:101B80000E23FB1800221A800C23FB1800221A8057
:101B9000FB1D1B789B000133DB00982292019446C9
:101BA0006344181CFFF7B2FD031C1A1C0C23FB181E
:101BB0001A800C23FB181B881B029CB2FB1D1B7890
:101BC0009B000133DB009C22920194466344181C65
:101BD000FFF79CFD031C9AB20C23FB18A2181A8075
:101BE0000C23FB181B88002B27D0FB1D1B789B00A8
:101BF0000133DB009822920194466344181CFFF7DE
:101C000085FD031C1A1C0E23FB181A800E23FB18DB
:101C10001B881B029CB2FB1D1B789B000133DB0061
:101C20009C22920194466344181CFFF76FFD031C2D
:101C30009AB20E23FB18A2181A800E23FA180C234E
:101C4000FB1812881B889A42A2D10E23FB181B880E
:101C5000181CBD4605B090BD90B585B000AF396089
:101C6000111CFB1D021C1A703B1D0A1C1A800E233E
:101C7000FB1800221A800023BB603B1D1B88002B31
:101C800000D164E0FB1D1B789B000133DB00902238
:101C9000920194466344181CFFF738FD031C9BB265
:101CA0001B029CB2FB1D1B789B000133DB009422BE
:101CB000920194466344181CFFF728FD031C9AB256
:101CC0000E23FB18A2181A800E23FB181B881B0278
:101CD000FA1D127892000232D2009B18BB60B968DC
:101CE0003A683B1D1B88081C111C1A1CFFF752FE8A
:101CF0000E23FB180E22B9183A1D098812888A187B
:101D00001A80FB1D1B789B000133DB00902292019F
:101D1000944663441A1C0E23FB181B881B0A9BB2B3
:101D2000DBB2101C191CFFF753FDFB1D1B789B0039
:101D30000133DB0094229201944663441A1C0E2363
:101D4000FB181B88DBB2101C191CFFF741FDBD46B8
:101D500005B090BD90B585B000AF3960111CFB1D7A
:101D6000021C1A703B1D0A1C1A800E23FB1800224D
:101D70001A800023BB603B1D1B88002B00D164E050
:101D8000FB1D1B789B000133DB00A02292019446CF
:101D90006344181CFFF7BAFC031C9BB21B029CB2E5
:101DA000FB1D1B789B000133DB00A42292019446AB
:101DB0006344181CFFF7AAFC031C9AB20E23FB18FD
:101DC000A2181A800E23FB181B881B02FA1D12781A
:101DD00092000332D2009B18BB60B9683A683B1D81
:101DE0001B88081C111C1A1CFFF756FD0E23FB183C
:101DF0000E22B9183A1D098812888A181A80FB1D0C
:101E00001B789B000133DB00A022920194466344BF
:101E10001A1C0E23FB181B881B0A9BB2DBB2101C7A
:101E2000191CFFF7D5FCFB1D1B789B000133DB0061
:101E3000A4229201944663441A1C0E23FB181B88AB
:101E4000DBB2101C191CFFF7C3FCBD4605B090BDEA
:101E5000B0B582B000AF051C0C1C101C191CFB1D7A
:101E60002A1C1A70BB1D221C1A703B1D021C1A80F2
:101E7000FB1C0A1C1A70FB1D1B78082B01D9FF23C1
:101E8000E6E0BB1D1B78012B03DB022B03DD042BDB
:101E900001D0FB23DCE0C046FB1C1B78062213406C
:101EA00001D0FA23D4E0FB1C1B78002B27D0BB1DEC
:101EB0001B78012B02D0022B08D020E0FB1C1B78E2
:101EC0002122134001D1FA23C2E018E0FB1C1B7849
:101ED0002022134006D0FB1C1B785BB2002B01DBD9
:101EE000FA23B5E0FB1C1B781022134006D0FB1C24
:101EF0001B785BB2002B01DBFA23A9E0C046FB1D77
:101F00001B78181C00F0B8F8FB1D1B789B000133F0
:101F1000DB00191CFB1C1B781A1C0F239A43131C93
:101F2000DAB2BB1D1B781343DBB2DBB2081C191CF1
:101F3000FFF74EFC3B1D1B88002B0FD1474B1B8826
:101F40005A1C91B2454A11803A1D1380434B1B889D
:101F5000434A934202D1414B424A1A80FB1D1B78EF
:101F60009B000133DB008022D200944663441A1C9C
:101F70003B1D1B881B0A9BB2DBB2101C191CFFF710
:101F800027FCFB1D1B789B000133DB00A022D20045
:101F9000944663441A1C3B1D1B88DBB2101C191CA1
:101FA000FFF716FCFB1D1B789B000133DB000133A0
:101FB000FF33181C0121FFF70BFCC046FB1D1B78EB
:101FC0009B000133DB000133FF33181CFFF79EFB3E
:101FD000031EF3D1FB1C1B7801221A40FB1D1B784A
:101FE0009A40131C9AB2204B1B889BB213439BB29E
:101FF0009AB21D4B1A80FB1D1B7801229A40131CBC
:102000009BB2DB4399B2194B1B889AB20B1C13404D
:102010009BB29AB2154B1A80FB1D1A78144B5200D2
:102020000021D152FB1D1B78124A0021D154C04619
:10203000FB1D1B789B000133DB00C02292009446FD
:102040006344181CFFF762FB031EF1D0FB1D1B78D5
:102050005BB2181CBD4602B0B0BDC0460600001001
:10206000F0FF000000C0FFFF8000001082000010A1
:10207000840000109400001080B582B000AF021CF4
:10208000FB1D1A70FB1D1B78082B01D9FF2350E0A4
:10209000FB1D1B789B000133DB000133FF33181C51
:1020A0001021FFF795FBC046FB1D1B789B000133F9
:1020B000DB000133FF33181CFFF728FB031EF3D1AD
:1020C000FB1D1B789B000133DB00802292009446AD
:1020D0006344181C1F21FFF77BFBFB1D1B780122AB
:1020E0009A40131C9BB2DB4399B2144B1B889AB2E3
:1020F0000B1C13409BB29AB2104B1A80FB1D1A782E
:102100000F4B52000021D152FB1D1B780D4A0021BC
:10211000D154C046FB1D1B789B000133DB00C0225D
:10212000920094466344181CFFF7F0FA031EF1D1A5
:1021300001235BB2181CBD4602B080BD82000010B6
:10214000840000109400001080B582B000AF021C23
:10215000FB1D1A70FB1D1B78082B01D9FF235CE0C7
:10216000FB1D1B789B000133DB00181CFFF7CEFA28
:10217000031C1A1C0F231340012B01D0FB234CE03E
:10218000FB1D1B789B000133DB00C02292009446AC
:102190006344181CFFF7BAFA031E132B01D0FD236A
:1021A0003BE0FB1D1B789B000133DB000133FF3359
:1021B000181C0221FFF70CFBC046FB1D1B789B007F
:1021C0000133DB000133FF33181CFFF79FFA031EB6
:1021D000F3D112E0FB1D1B789B000133DB000133C0
:1021E000FF33181CFFF792FA031E06D1FB1D1B7864
:1021F000181CFFF741FFFC230FE0FB1D1B789B0021
:102200000133DB00C022920094466344181CFFF7A0
:102210007DFA031E142BDDD101235BB2181CBD46D1
:1022200002B080BD80B584B000AF3960111CFB1DC9
:10223000021C1A703B1D0A1C1A80FB1D1B78082B00
:1022400001D9FF23DFE0FB1D1B789B000133DB007E
:10225000181CFFF75BFA031C1A1C0F231340012BF9
:1022600001D0FB23CFE0FB1D1B789B000133DB007B
:10227000C022920094466344181CFFF747FA031EDD
:10228000132B01D0FD23BEE03B681B78FB60FB688D
:102290001B023A68013212789B18FB60FB681B0234
:1022A0003A68023212789B18FB60FB681B023A689E
:1022B000033212789B18FB60FB68013302D0FB6885
:1022C000002B01D1F4239EE03B1D1B88002B01D184
:1022D000F52398E0FB1D1B789B000133DB00C02237
:1022E0001201944663441A1C3B68101C191C0422FA
:1022F000FFF750FBFB1D1B789B000133DB008022A6
:102300005201944663441A1C3B1D1B881B0A9BB256
:10231000DBB2101C191CFFF75BFAFB1D1B789B003E
:102320000133DB0088225201944663441A1C3B1D92
:102330001B88DBB2101C191CFFF74AFAFB1D1B7827
:102340009B000133DB000133FF33181C0421FFF72E
:102350003FFAC046FB1D1B789B000133DB000133B5
:10236000FF33181CFFF7D2F9031EF3D1284B1B884B
:102370001A1CFB1D1B781A41131C0122134001D0AB
:10238000002340E02FE0FB1D1B789B000133DB00A6
:102390008022920094466344181CFFF7B7F9031C8F
:1023A0001A1C082313400ED0FB1D1B789B00013321
:1023B000DB008022920094466344181C0821FFF73A
:1023C00007FAF3231FE0FB1D1B789B000133DB00A2
:1023D000C022920094466344181CFFF797F9031E2D
:1023E00001D1FC230FE0FB1D1B789B000133DB00B8
:1023F000C022920094466344181CFFF787F9031E1D
:10240000172BC0D101235BB2181CBD4604B080BDA0
:102410008000001080B582B000AF021CFB1D1A7056
:10242000FB1D1B78082B01D9FF236CE0FB1D1B78DB
:102430009B000133DB00181CFFF768F9031C1A1C12
:102440000F231340012B01D0FB235CE0FB1D1B7805
:102450009B000133DB000133FF33181C0821FFF719
:10246000B7F9C046FB1D1B789B000133DB0001332D
:10247000FF33181CFFF74AF9031EF3D1FB1D1B782D
:1024800001229A40131C9BB2DB4399B2204B1B885C
:102490009AB20B1C13409BB29AB21D4B1A801D4B73
:1024A0001B881A1CFB1D1B781A41131C01221340A8
:1024B00001D0002327E017E0FB1D1B789B000133B0
:1024C000DB008022920094466344181CFFF71EF93B
:1024D000031C1A1C0823134006D0FB1D1B78181C74
:1024E000FFF7CAFDF3230EE0FB1D1B789B000133B1
:1024F000DB00C022920094466344181CFFF706F9E3
:10250000031ED9D101235BB2181CBD4602B080BDA9
:10251000820000108000001090B585B000AF3960D7
:10252000111CFB1D021C1A703B1D0A1C1A800F2374
:10253000FB1800221A700C23FB1800221A80FB1DC6
:102540001B78082B02D901235B4221E1FB1D1B787C
:102550009B000133DB00181CFFF7D8F8031C1A1C82
:102560000F231340012B02D005235B4210E13B1DDA
:102570001B88002B02D10E235B4209E1FB1D1B7857
:102580009B000133DB00C0229200944663440F227B
:10259000BC18181CFFF7BAF8031C23700F23FB1894
:1025A0001B78172B07D00F23FB181B781C2B02D08E
:1025B00007235B42ECE0784B1B881A1CFB1D1B7841
:1025C0001A41131C0122134047D0FB1D1B789B00AE
:1025D0000133DB008022920094466344181CFFF70D
:1025E00095F8031C191C0F23FB181F220A401A70B0
:1025F0000F23FB181B78102213401ED0FB1D1B78E5
:102600009B000133DB008022920094466344181C37
:102610001021FFF7DDF8FB1D1B7801229A40131CE7
:102620009BB2DB4399B25C4B1B889AB20B1C1340E4
:102630009BB29AB2584B1A800FE00F23FB181B78FD
:102640000822134007D0FB1D1B78181CFFF714FD50
:102650000D235B429CE000239AE0FB1D1B789B004E
:102660000133DB00F822520194466344181CFFF743
:102670004DF8031C9AB20C23FB1892021A803A1DE3
:102680000C23FB1812881B889A4204D93B1D0C228C
:10269000BA1812881A800C23FC18FB1D1B78181C12
:1026A000FFF7F6F9031C2380FB1D1B789B00013309
:1026B000DB00C0229200944663440F22BC18181C11
:1026C000FFF724F8031C23700F23FB181B78172B2C
:1026D0000CD00F23FB181B781C2B07D0FB1D1B787D
:1026E000181CFFF7C9FC07235B4251E02B4B1B88EA
:1026F0001A1CFB1D1B781A41131C0122134008D021
:102700003A1D0C23FB1812881B889A4201D900231A
:102710003EE03A1D0C23FB1812881B889A4216D8FB
:10272000C046FB1D19783A683B1D1B88081C111C0C
:102730001A1CFFF791FAFB1D1B789B000133DB008D
:102740000133FF33181C2021FFF742F804E03B1D42
:102750003A1D12881A809EE7FB1D1B789B000133EF
:10276000DB000133FF33181CFEF7D0FF031EF3D14B
:10277000FB1D1B7801229A40131C9AB2064B1B8842
:102780009BB213439BB29AB2034B1A803B1D1B882A
:10279000181CBD4605B090BD8200001080000010DE
:1027A00090B585B000AF3960111CFB1D021C1A707A
:1027B0003B1D0A1C1A800F23FB1800221A700C23E1
:1027C000FB1800221A80FB1D1B78082B02D901235D
:1027D0005B42D1E0FB1D1B789B000133DB00181C22
:1027E000FEF794FF031C1A1C0F231340012B02D089
:1027F00005235B42C0E03B1D1B88002B02D10E234A
:102800005B42B9E0FB1D1B789B000133DB00F0222B
:10281000520194466344181CFEF778FF031C9AB2D9
:102820000C23FB1892021A800C23FA183B1D128805
:102830001B889A4204D23B1D0C22BA1812881A80B7
:102840000C23FC18FB1D1B78181CFFF793F9031CC5
:102850002380FB1D1B789B000133DB00C02292000C
:10286000944663440F22BC18181CFEF74FFF031C4C
:1028700023700F23FB181B78172B31D00F23FB1865
:102880001B781C2B24D10C23FB181B88002B00D099
:1028900042E0FB1D1B78181CFFF7FAF8031C1C1CF8
:1028A000FB1D1B789B000133DB00F822520194468C
:1028B0006344181CFEF72AFF031C9B029C420FD1A5
:1028C000FB1D1B78181CFFF7D7FB07235B4253E067
:1028D000FB1D1B78181CFFF7CFFB07235B424BE067
:1028E000274B1B881A1CFB1D1B781A41131C012245
:1028F000134006D00C23FB181B88002B01D10023AA
:102900003AE00C23FB181B88002B00D004E03B1D91
:102910003A1D12881A8093E70C23FA183B1D12887F
:102920001B889A4204D23B1D0C22BA1812881A80C6
:10293000FB1D19783A683B1D1B88081C111C1A1CCA
:10294000FFF708FAFB1D1B789B000133DB00013306
:10295000FF33181C4021FEF73BFFC046FB1D1B78D0
:102960009B000133DB000133FF33181CFEF7CEFE62
:10297000031EF3D13B1D1B88181CBD4605B090BD3E
:102980008000001080B500AFBD4680BD80B500AFAF
:10299000BD4680BD80B500AFBD4680BD80B500AFEF
:1029A000BD4680BD80B582B000AF78607B681B7883
:1029B000DBB2181CBD4602B080BDC04680B582B0F7
:1029C00000AF78600A1CFB1C1A707B68FA1C127836
:1029D0001A70BD4602B080BD80B500AF0023181C40
:1029E000BD4680BD80B582B000AF021CFB1D1A70D1
:1029F000BD4602B080BDC04680B582B000AF7860F1
:102A00000A1CBB1C1A80BD4602B080BD80B582B0D6
:102A100000AF78600A1CBB1C1A80BD4602B080BDA6
:102A200080B582B000AF786039607B68002B02D03F
:102A30003B68002B06D1084B084A1A61064B084A2E
:102A40005A6105E0044B7A681A61034B3A685A618F
:102A5000BD4602B080BDC0460800001095290000A8
:102A60009D29000080B582B000AF78603960C04613
:102A70000E4B1B881A1C80239B001340F8D07B68E8
:102A8000002B02D03B68002B06D1084B084A9A6104
:102A9000064B084ADA6105E0044B7A689A61034BF9
:102AA0003A68DA61BD4602B080BDC0460800001039
:102AB000D9290000E529000080B582B000AF786018
:102AC0003960C0460E4B1B881A1C80239B001340A4
:102AD000F8D07B68002B02D03B68002B06D1084B56
:102AE000084A1A62064B084A5A6205E0044B7A68A3
:102AF0001A62034B3A685A62BD4602B080BDC046B6
:102B000008000010F92900000D2A000090B587B0D8
:102B100000AF021C3960FB1D1A701723FB1800223E
:102B20001A700C23FB1800221A600C23FB180022D9
:102B30005A60FB1D1B780F2B00D9BFE09A00644B35
:102B4000D3181B689F4600F003F9BAE03B68002BDE
:102B50000BD00C23FB183A681A600C23FB181B6877
:102B600008331A1C0C23FB185A600C23FB181A6834
:102B70000C23FB185B68101C191C00F03DF9031CAA
:102B8000A0E03B681B88181C00F002FA99E000F0F6
:102B900029FA031C1A1C3B681A8092E03B681B88C8
:102BA000181C00F053FA8CE000F078FA031C1A1C91
:102BB0003B681A8085E03B681B881B0A9BB2DAB22F
:102BC00098235B01181C111CFEF702FE3B681B8852
:102BD000DAB2A0235B01181C111CFEF7F9FD70E0AE
:102BE00098235B01181CFEF791FD031C9BB21B028E
:102BF0009CB2A0235B01181CFEF788FD031C9BB24E
:102C0000E3189AB23B681A805BE0324B9A783B68D3
:102C10001A703B6801332F4AD2781A703B6802332E
:102C20002C4A12791A703B6803332A4A52791A7077
:102C30003B680433274A92791A703B6805330022B7
:102C40001A703EE000F094FA3BE03B68181C00F07C
:102C5000C3FA36E03B68181C00F024FB31E03B6807
:102C60001B78181C00F074FB031C2BE000F062FAC8
:102C7000031C1A1C1723FB181A701723FB181B7848
:102C8000FF2B01D1FF231DE03B681722BA181278F1
:102C90001A7016E000F032FA031C1A1C1723FB18F6
:102CA0001A701723FB181B78FF2B01D1FF2309E0B3
:102CB0003B681722BA1812781A7002E0FF2301E06D
:102CC000C04600235BB2181CBD4607B090BDC0468D
:102CD000D8D700000800001080B582B000AF021CF9
:102CE0003960FB1D1A70FB1D1B78052B26D89A0036
:102CF000164BD3181B689F463B68181C00F08EFBD0
:102D00001EE03B68181C00F0CDFB19E03B681B7807
:102D1000181C00F00BFC031C13E000F035FC031C36
:102D20001A1C3B681A700BE03B68181C00F036FC5C
:102D300006E03B68181C00F055FC01E0FF2300E0B2
:102D400000235BB2181CBD4602B080BD18D800003D
:102D500080B586B000AF90231A013B1D101C191CD2
:102D60000622FEF799FD80235A001423FB18101C3D
:102D7000191C0422FEF790FDA023DA001023FB1893
:102D8000101C191C0422FEF787FDF0231A010C23E6
:102D9000FB18101C191C0422FEF77EFD0020802168
:102DA000FEF716FD0020FEF7B1FC90231A013B1D33
:102DB000101C191C0622FEF7EDFD80235A00142377
:102DC000FB18101C191C0422FEF7E4FDA023DA00F6
:102DD0001023FB18101C191C0422FEF7DBFDF02346
:102DE0001A010C23FB18101C191C0422FEF7D2FD3B
:102DF000BD4606B080BDC04680B584B000AF7860E7
:102E000039600E23FB1800221A70FFF7A1FF7B68C0
:102E1000002B59D00E23FB1800221A700F23FB1829
:102E200000221A7017E00F23FB181B785BB27A6838
:102E3000D3181A780E23FB181B78D318DAB20E2396
:102E4000FB181A700F23FB181B78DBB20133DAB2C0
:102E50000F23FB181A700F23FB181B785BB2072B8C
:102E6000E1DD0E23FB181B785BB2102B01DDFF2385
:102E700088E00F23FB1800221A701FE00F23FB18B5
:102E80001B785BB29B000133DB00F82252019446B1
:102E90006344191C0F23FB181B785BB27A68D318A4
:102EA0001B78081C191CFEF793FC0F23FB181B78DA
:102EB000DBB20133DAB20F23FB181A700F23FB18B1
:102EC0001B785BB2072BD9DD3B68002B59D00E2352
:102ED000FB1800221A700F23FB1800221A7017E04B
:102EE0000F23FB181B785BB23A68D3181A780E23AD
:102EF000FB181B78D318DAB20E23FB181A700F23B5
:102F0000FB181B78DBB20133DAB20F23FB181A70FF
:102F10000F23FB181B785BB2072BE1DD0E23FB1898
:102F20001B785BB2102B01DDFF232BE00F23FB1876
:102F300000221A701FE00F23FB181B785BB29B0066
:102F40000133DB00F022520194466344191C0F2325
:102F5000FB181B785BB23A68D3181B78081C191C45
:102F6000FEF736FC0F23FB181B78DBB20133DAB215
:102F70000F23FB181A700F23FB181B785BB2072B6B
:102F8000D9DD00235BB2181CBD4604B080BDC0462D
:102F900080B584B000AF021CBB1D1A800F23FB1844
:102FA000BA1D12881A70BB1D1B881B0A9AB20E2309
:102FB000FB181A700F23FB181B780F229343DAB209
:102FC000A8235B01181C111CFEF702FCB8235A0150
:102FD0000E23FB181B78101C191CFEF7F9FBBD46CD
:102FE00004B080BD90B583B000AFFB1D00221A7005
:102FF000BB1D00221A703B1D00221A80A8235B0112
:10300000181CFEF783FB031C191CFB1D0F229143A8
:103010000A1C1A70BC1DB8235B01181CFEF776FB56
:10302000031C23703B1DBA1D12781A803B1D1B88A0
:103030001B0299B2FB1D1B789AB23B1D8A181A809D
:103040003B1D1B88181CBD4603B090BD80B584B0E5
:1030500000AF021CBB1D1A800F23FB18BA1D12887B
:103060001A70BB1D1B881B0A9AB20E23FB181A701C
:10307000B0235A010F23FB181B78101C191CFEF7F4
:10308000A7FBC0235A010E23FB181B78101C191C28
:10309000FEF79EFBBD4604B080BDC04690B583B030
:1030A00000AFFB1D00221A70BB1D00221A703B1DD1
:1030B00000221A80FC1DB0235B01181CFEF726FBC2
:1030C000031C2370BC1DC0235B01181CFEF71EFBF4
:1030D000031C23703B1DBA1D12781A803B1D1B88F0
:1030E0001B0299B2FB1D1B789AB23B1D8A181A80ED
:1030F0003B1D1B88181CBD4603B090BD80B582B037
:1031000000AFB8239B01181CFEF700FB031C1A1C20
:103110000123134003D0FB1D01221A7002E0FB1DA6
:1031200000221A70FB1D1B785BB2181CBD4602B052
:1031300080BDC04680B582B000AFFB1D00221A7072
:10314000B8239B01181CFEF7E1FA031C1A1C30235C
:10315000134003D0FB1D01221A7002E0FB1D002268
:103160001A70FB1D1B785BB2181CBD4602B080BDF7
:1031700090B583B000AFFC1DB8239B01181CFEF76F
:10318000C5FA031C2370FB1DFA1D12787F210A402B
:103190001A70B8239A01FB1D1B78101C191CFEF72E
:1031A00017FBFC1DB8239B01181CFEF7AFFA031C8C
:1031B0002370FB1DFA1D1278802149420A431A70C0
:1031C000B8239A01FB1D1B78101C191CFEF700FB8D
:1031D000BD4603B090BDC04680B584B000AF7860F6
:1031E0000F23FB1800221A707B681B78012B08D173
:1031F0000F23FB180F22BA18127840210A431A70C5
:1032000007E00F23FB180F22BA18127840218A43D7
:103210001A707B685B78012B08D10F23FB180F22F3
:10322000BA18127838210A431A702CE07B68DB78D0
:10323000012B15D17B689B78012B08D10F23FB183C
:103240000F22BA18127818210A431A701BE00F23B4
:10325000FB180F22BA18127808210A431A7012E0DC
:103260007B689B78012B08D10F23FB180F22BA181B
:10327000127810210A431A7005E00F23FB180F2261
:10328000BA1812781A70B8239A010F23FB181B780A
:10329000101C191CFEF79CFAFFF76AFFBD4604B02C
:1032A00080BDC04690B585B000AF78600F23FB1895
:1032B00000221A700F23FC18B8239B01181CFEF77C
:1032C00025FA031C23700F23FB181B7840221340A0
:1032D0005A1E9341DBB21A1C7B681A700F23FB182D
:1032E0001B7838221340202B01D0382B03D17B6868
:1032F00001225A7003E07B6800225A70C0460F23F7
:10330000FB181B7838221340182B03D0202B01D038
:10331000102B03D17B6801229A7003E07B680022A6
:103320009A70C0460F23FB181B7838221340182BC5
:1033300003D0202B01D0082B03D17B680122DA7047
:1033400003E07B680022DA70C046BD4605B090BD40
:1033500090B585B000AF021CFB1D1A700F23FB183F
:1033600000221A700F23FC18B8239B01181CFEF7CB
:10337000CDF9031C23700F23FB181B784022134048
:1033800001D1FF2345E00F23FB180F22BA18127852
:1033900038218A431A70FB1D1B78012B08D10F239B
:1033A000FB180F22BA18127830210A431A7007E06E
:1033B0000F23FB180F22BA18127838210A431A700B
:1033C000B8239A010F23FB181B78101C191CFEF759
:1033D000FFF9FFF7CDFE0F23FC18B8239B01181C43
:1033E000FEF794F9031C2370FB1D1B78012B07D1FA
:1033F0000F23FB181B783022134009D0002308E06C
:103400000F23FB181B783822134001D0002300E063
:10341000FF235BB2181CBD4605B090BD80B582B0DD
:1034200000AF78607A6890231B01181C111C0622DB
:10343000FEF7B0FA7B680E331A1C80235B00181C61
:10344000111C0422FEF7A6FA7B680A331A1CA0237B
:10345000DB00181C111C0422FEF79CFA7B689A1DE5
:10346000F0231B01181C111C0422FEF793FA7B6841
:103470009A7C0A4B1A707B68DA7C084B5A707B681E
:103480001A7D064B9A707B685A7D044BDA707B6814
:103490009A7D034B1A70BD4602B080BD9C0000109F
:1034A000A000001080B582B000AF78607A689023E9
:1034B0001B01181C111C0622FEF7EEF97B680E3367
:1034C0001A1C80235B00181C111C0422FEF7E4F96F
:1034D0007B680A331A1CA023DB00181C111C042271
:1034E000FEF7DAF97B689A1DF0231B01181C111CEA
:1034F0000422FEF7D1F90B4B1A787B689A74094BBA
:103500005A787B68DA74074B9A787B681A75054B92
:10351000DA787B685A75044B1A787B689A75BD46D1
:1035200002B080BD9C000010A000001090B585B0D6
:1035300000AF021CFB1D1A700F23FB1800221A702B
:10354000FB1D1B783A22934301D0FF2317E00F2382
:10355000FC180020FEF7DAF8031C23700F23FB1879
:103560000F22B918FA1D097812780A431A700F232E
:10357000FB181B780020191CFEF72AF900235BB208
:10358000181CBD4605B090BD80B500AF0020FEF709
:10359000BDF8031C181CBD4680BDC04680B582B076
:1035A00000AF78607B681A78D8235B01181C111C67
:1035B000FEF70EF97B685B881B0A9BB2DAB2C82360
:1035C0005B01181C111CFEF703F97B685B88DAB2FB
:1035D000D0235B01181C111CFEF7FAF8BD4602B09F
:1035E00080BDC04690B583B000AF7860D8235B0142
:1035F000181CFEF78BF8031C1A1C7B681A70C82372
:103600005B01181CFEF782F8031C9BB21B029CB2E4
:10361000D0235B01181CFEF779F8031C9BB2E3185A
:103620009AB27B685A80BD4603B090BD80B582B027
:1036300000AF021CFB1D1A700023181CBD4602B00F
:1036400080BDC04680B582B000AF021CFB1D1A7061
:103650000023181CBD4602B080BDC04680B586B0B0
:1036600000AFB9607A603B600F23FB18021C1A7030
:103670001723FB1800221A703B68002B01D104238A
:1036800010E00F23FB181B78002B0BD17B6859022D
:103690003B685B02BA68081C111C1A1C04F0C6FDCA
:1036A0000023FFE7181CBD4606B080BD80B584B07E
:1036B00000AFB9607A603B600F23FB18021C1A70E0
:1036C0003B68002B01D1042314E00F23FB181B7867
:1036D000002B0FD1094B1B68012B09D17B685902C4
:1036E0003B685B02BA68081C111C1A1C04F00CFD34
:1036F0000023FFE7181CBD4604B080BDB0010010D8
:1037000080B584B000AF3A60FB1D021C1A70BB1D6F
:103710000A1C1A70FB1D1B78002B32D1BB1D1B78B5
:10372000012B20D002DC002B05D025E0022B09D094
:10373000032B10D020E004F065FD0F23FB180022BE
:103740001A701EE03B68802292001A800F23FB183B
:1037500000221A7015E03B6801221A800F23FB1823
:1037600000221A700DE03B688022D2001A600F23FD
:10377000FB1800221A7004E00F23FB1804221A70B1
:10378000C0460F23FB181B78181CBD4604B080BD33
:1037900080B582B000AF00237B60114B1B68114ADB
:1037A000944663445A06104B1B685B051A430F4B43
:1037B0001B681B041A430E4B1B689BB2DB021A43A7
:1037C0000C4B1B689BB25B011A430B4B1B689BB2F3
:1037D0005B0013437B607B68181CBD4602B080BD54
:1037E0003000001044F8FFFF3400001038000010D3
:1037F0003C000010400000104400001080B586B06E
:1038000000AFF860B9607A60FB687B61BB683B61C0
:1038100007E07B695A1C7A613A69511C3961127858
:103820001A707B685A1E7A60002BF2D1BD4606B032
:1038300080BDC04680B586B000AFF860B9607A60E0
:10384000FB687B6105E07B695A1C7A61BA68D2B279
:103850001A707B685A1E7A60002BF4D1BD4606B000
:1038600080BDC04680B588B000AFF860B9607A60AE
:10387000FB68FB61BB68BB6100237B61C0467B6862
:103880005A1E7A60002B0DD0FB695A1CFA611B7816
:10389000191CBB695A1CBA611B78CB1A7B617B6906
:1038A000002BECD07B69181CBD4608B080BDC0461B
:1038B00080B582B000AF7860396002E07B68013388
:1038C0007B607B681B78002B05D07B681B781A1EF9
:1038D0003B689A42F2D17B681B78181CBD4602B047
:1038E00080BDC04680B586B000AF78600F23FB185E
:1038F00000221A707B681B79002B3BD07B68DB6A47
:103900007B617B6859787B6830331A1C7B69081CA3
:10391000111C1A1C0123FFF7C9FE031E04D00F233C
:10392000FB1801221A7025E07B6800221A717B685F
:103930001B6A7A69D21A7B689B699A421AD27B68A1
:10394000DB783B6113E07B689B697A69D3187B6104
:103950007B6859787B6830331A1C7B69081C111C02
:103960001A1C0123FFF7A2FE3B69013B3B613B6947
:10397000012BE8D80F23FB181B78181CBD4606B096
:1039800080BDC04690B585B000AF786039600F2328
:10399000FB1800221A707B68DA6A3B689A4224D0CE
:1039A0000F23FC187B68181CFFF79CFF031C237077
:1039B0000F23FB181B78002B17D17B6859787B6885
:1039C00030331A1C3B68081C111C1A1C0123FFF71A
:1039D00045FE031E06D001235B423B600F23FB180C
:1039E00001221A707B683A68DA620F23FB181B7891
:1039F000181CBD4605B090BD90B585B000AF78608D
:103A00000F23FC187B68181CFFF76CFF031C237046
:103A10000F23FB181B78002B00D09AE07B681B78E3
:103A2000032B00D088E07B685B79012B00D083E01A
:103A30007B6830331A1C80239B00101C00211A1C49
:103A4000FFF7F8FE7B68464A552199547B68454A42
:103A5000AA2199547B683022522199547B683122E3
:103A6000522199547B683222612199547B68332218
:103A7000412199547A6885239B007221D1547B6837
:103A8000394A722199547B68384A412199547B689C
:103A9000374A612199547B681B69D9B27A688623B9
:103AA0009B00D1547B681B699BB21B0A9BB2D9B2A5
:103AB0007B68304A99547B681B691B0CD9B27B68C0
:103AC0002D4A99547B681B691B0ED9B27B682B4A1F
:103AD00099547B68DB68D9B27A6887239B00D154FC
:103AE0007B68DB689BB21B0A9BB2D9B27B68244A15
:103AF00099547B68DB681B0CD9B27B68214A9954C6
:103B00007B68DB681B0ED9B27B681F4A99547B68BF
:103B1000DB695A1C7B68DA627B6859787B683033D2
:103B20001A1C7B68DB6A081C111C1A1C0123FFF796
:103B3000BDFD7B6800225A717B685B78181C0021F0
:103B40000022FFF7DDFD031E03D00F23FB18012227
:103B50001A700F23FB181B78181CBD4605B090BDCA
:103B60002E0200002F0200001502000016020000C5
:103B700017020000190200001A0200001B020000D8
:103B80001D0200001E0200001F02000080B582B06E
:103B900000AF786039603B68023B3B607B685B69E3
:103BA0009A1E3B689A4201D8002307E07B689B7805
:103BB0001A1C3B685A437B689B6AD318181CBD4685
:103BC00002B080BD80B586B000AF786039603B68D8
:103BD000012B04D97B685A693B689A4202D80123B9
:103BE0007B61A0E001235B427B617B681B78022B39
:103BF00049D0032B6AD0012B00D092E03B683B6197
:103C00003B695B083A69D3183B617B681A6A3B6978
:103C10005B0AD3187A68101C191CFFF7B3FE031E49
:103C200000D080E03B695A1C3A61DB05DB0D7A6805
:103C30003021D3185B181B78FB607B681A6A3B69DC
:103C40005B0AD3187A68101C191CFFF79BFE031E31
:103C500000D068E03B69DB05DB0D7A683021D318C2
:103C60005B181B781B021A1CFB681343FB603B6844
:103C70000122134002D0FB681B0902E0FB681B0510
:103C80001B0D7B614FE07B681A6A3B681B0AD318E7
:103C90007A68101C191CFFF775FE031E00D042E065
:103CA0003B685A00FF235B00134030337A68D31817
:103CB000BB60BB6801331B781B029AB2BB681B78E0
:103CC0009BB213439BB29BB27B612CE07B681A6A68
:103CD0003B68DB09D3187A68101C191CFFF752FEE9
:103CE000031E00D01FE03B689A00FE235B001340D8
:103CF00030337A68D318BB60BB6803331B781A066D
:103D0000BB6802331B781B041343BA680132127874
:103D100012021343BA68127813431B011B097B611B
:103D200001E001237B617B69181CBD4606B080BDA4
:103D300090B589B000AFF860B9607A60BB68012BBC
:103D400004D9FB685A69BB689A4204D81F23FB1840
:103D500002221A7003E1FB681B78022B00D17EE07F
:103D6000032B00D1A8E0012B00D0F4E0BB68BB61BD
:103D7000BB695B08BA69D318BB61FB681A6ABB6987
:103D80005B0AD3181F22BC18FA68101C191CFFF715
:103D9000F9FD031C23701F23FB181B78002B00D098
:103DA000DDE0BB695A1CBA61DB05DB0D3033FA6814
:103DB000D3187B61BB68012213400ED07B691B784E
:103DC000DBB21A1C0F231340DAB27B68DBB21B0193
:103DD000DBB21343DBB2DBB201E07B68DBB27A69B2
:103DE0001370FB6801221A71FB681A6ABB695B0ACF
:103DF000D3181F22BC18FA68101C191CFFF7C2FD4B
:103E0000031C23701F23FB181B78002B00D0A6E097
:103E1000BB69DB05DB0D3033FA68D3187B61BB6807
:103E20000122134003D07B681B09DBB211E07B69E0
:103E30001B78DBB21A1C0F239A43131CDAB27B687F
:103E40001B0ADBB2191C0F230B40DBB21343DBB29E
:103E5000DBB27A691370FB6801221A717FE0FB689C
:103E60001A6ABB681B0AD3181F22BC18FA68101CF8
:103E7000191CFFF787FD031C23701F23FB181B78F9
:103E8000002B00D06BE0BB685A00FF235B0013409F
:103E90003033FA68D3187B617B68DAB27B691A70B9
:103EA0007B6901337A6892B2120A92B2D2B21A7066
:103EB000FB6801221A7152E0FB681A6ABB68DB09D1
:103EC000D3181F22BC18FA68101C191CFFF75AFDE2
:103ED000031C23701F23FB181B78002B00D03EE02F
:103EE000BB689A00FE235B0013403033FA68D31896
:103EF0007B617B6903331B781A067B6902331B786D
:103F00001B0413437A6901321278120213437A694F
:103F1000127813431B0F1B077A6813437B607B687F
:103F2000DAB27B691A707B6901337A6892B2120A3D
:103F300092B2D2B21A707B6902337A68120CD2B292
:103F40001A707B6903337A68120ED2B21A70FB685A
:103F500001221A7103E01F23FB1802221A701F238B
:103F6000FB181B78181CBD4609B090BD90B585B0F4
:103F700000AF786039603B68012B04D97B685A69CF
:103F80003B689A4204D80F23FB1802221A7048E0BB
:103F90000F23FB1800221A703EE07A683B68101C61
:103FA000191CFFF70FFE031CBB60BB68002B00D180
:103FB00037E0BB68012B04D10F23FB1802221A70D3
:103FC0002FE0BB68013304D10F23FB1801221A70C4
:103FD00027E00F23FC187A683B68101C191C00228C
:103FE000FFF7A6FE031C23700F23FB181B78002B82
:103FF00000D016E07B681B6901330BD07B681B691E
:104000005A1C7B681A617B685B7901221343DAB220
:104010007B685A71BB683B607B685A693B689A420F
:10402000BBD80F23FB181B78181CBD4605B090BDEC
:10403000B0B586B000AF786039603B68002B0DD119
:104040007B68DB683B613B69002B04D07B685A6965
:104050003B699A421DD801233B611AE07A683B68AC
:10406000101C191CFFF7AEFD031CBB60BB68012BC5
:1040700001D801237FE0BB68013301D1BB687AE03E
:104080007B685A69BB689A4201D9BB6873E03B6898
:104090003B613B697B617B6901337B617B685A696A
:1040A0007B699A4207D802237B617A693B699A420D
:1040B00001D900235FE07A687B69101C191CFFF7A7
:1040C00081FD031CBB60BB68002B12D1C0460F23CF
:1040D000FC187A687B692A4D101C191C2A1CFFF7F2
:1040E00027FE031C23700F23FB181B78002B1ED107
:1040F0000EE0BB68013302D0BB68012B01D1BB6865
:1041000039E07A693B699A4201D1002333E0C2E782
:104110003B68002B0BD00F23FC1879683A687B6949
:10412000081C111C1A1CFFF703FE031C23700F232D
:10413000FB181B78002B13D17B687A69DA607B68E7
:104140001B69013316D07B681B695A1E7B681A6194
:104150007B685B7901221343DAB27B685A7109E00C
:104160000F23FB181B78012B02D101235B4200E0D7
:1041700001237B617B69181CBD4606B0B0BDC046FB
:10418000FFFFFF0F80B586B000AF786039603B68F5
:104190009AB27B68DA807B689B687B617B69012BC4
:1041A00005D07B681B685A697B699A4201D8022353
:1041B00065E07B69002B08D17B681B681B78032BAB
:1041C00003D17B681B685B6A7B617B69002B0DD127
:1041D0007B681B681B891A1E3B689A4201D8022320
:1041E0004DE07B681B685B6A3B612FE07B681B6866
:1041F0009B781B01FB601CE07B681A687B69101CC4
:10420000191CFFF7DFFC031C7B617B69013301D1C3
:10421000012334E07B69012B05D97B681B685A694F
:104220007B699A4201D8022329E03A68FB68D31AD5
:104230003B603A68FB689A42DED27B681A687B6909
:10424000101C191CFFF7A2FC031C3B617B687A69F8
:10425000DA603B69002B01D1022310E03B681A09A8
:104260003B69D2187B681A617B681A683B680F212A
:104270000B405B013033D2187B685A610023181C55
:10428000BD4606B080BDC04690B587B000AF78602F
:1042900039607B68DB880133FB60FB681B041B0C07
:1042A00003D07B681B69002B01D10423BAE0FB68B3
:1042B0000F22134000D0A6E07B681B695A1C7B6864
:1042C0001A617B68DB68002B09D17B681B681B893E
:1042D0001A1EFB689A4200D995E00423A2E0FB680D
:1042E0001A097B681B689B78013B134000D08AE069
:1042F0007B681A687B68DB68101C191CFFF762FC7E
:10430000031C7B617B69012B01D802238AE07B6956
:10431000013301D1012385E07B681B685A697B6901
:104320009A4263D83B68002B01D104237AE07B6872
:104330001A687B68DB68101C191CFFF779FE031CE8
:104340007B617B69002B01D107236BE07B69012B2B
:1043500001D1022366E07B69013301D1012361E0D1
:104360007B681B68181CFFF7BDFA031E01D00123F0
:1043700058E07B681B6830331A1C80239B00101C9C
:1043800000211A1CFFF756FA7B681C687B681A68C4
:104390007B69101C191CFFF7F9FB031CE362002367
:1043A0003B6114E07B681B6801221A717B681B6803
:1043B000181CFFF797FA031E01D0012332E07B6837
:1043C0001B68DA6A0132DA623B6901333B617B6860
:1043D0001B689B781A1E3B699A42E3D87B681B686E
:1043E0007A681268D16A3A698A1ADA627B687A69ED
:1043F000DA607B681A687B69101C191CFFF7C6FB22
:10440000021C7B681A61FB689AB27B68DA807B6861
:104410001A68FB680F210B405B013033D2187B68B0
:104420005A610023181CBD4607B090BD90B585B0F9
:1044300000AF786039600F23FC187B68181C0021DE
:10444000FFF7A0FE031C23700F23FB181B78002B23
:1044500036D10023BB607B681A687B681B690F211B
:104460007C18101C191CFFF78DFA031C23700F23F6
:10447000FB181B78002B00D022E07B685B691B785F
:10448000E52B04D07B685B691B78002B08D1BB68E7
:104490000133BB60BA683B689A4200D110E001E08A
:1044A0000023BB600F23FC187B68181C0121FFF759
:1044B000EBFE031C23700F23FB181B78002BCAD0C4
:1044C0000F23FB181B78042B03D10F23FB180722A3
:1044D0001A700F23FB181B78181CBD4605B090BD41
:1044E00080B584B000AF786039603B681B331B78BF
:1044F0001B029AB23B681A331B789BB213439BB2E0
:104500009BB2FB607B681B78032B0FD13B68153394
:104510001B781B029AB23B6814331B789BB213437F
:104520009BB29BB21B04FA681343FB60FB68181C28
:10453000BD4604B080BDC04680B582B000AF786093
:1045400039607B681A333A68D2B21A707B681B33C1
:104550003A6892B2120A92B2D2B21A707B681433DD
:104560003A68120CD2B21A707B6815333A68120C92
:1045700092B2120A92B2D2B21A70BD4602B080BD97
:1045800090B587B000AF786039603B681B781A1C23
:1045900040239A43131C5A1E131C5B009B189B005C
:1045A0009B187B6100233B610E23FB1801221A80BC
:1045B000324A3B69D3181B7801333A68D3181B7809
:1045C0001B0299B22D4A3B69D3181B781A1C3B6811
:1045D0009B181B789BB20A1C13439AB20C23FB183E
:1045E0001A800E23FB181B88002B1FD00E23FC18EB
:1045F0000C23FB181B88181C03F016FD031C2380DA
:104600007B69FE2B10D87B695A1C7A615B007A6843
:10461000D3181B88181C03F007FD031C1A1C0E235B
:10462000FB181B88934209D0002322E00C23FB18BF
:104630001B88134A934201D000231AE03B690133DF
:104640003B613B690C2BB3D93B681B781A1C402398
:1046500013400DD00E23FB181B88002B08D07B695C
:104660005B007A68D3181B88002B01D0002300E080
:104670000123181CBD4607B090BDC04630D80000CD
:10468000FFFF000080B586B000AF786039603B68FE
:104690001B781A1C3F2313405A1E131C5B009B18E7
:1046A0009B009B187B6100233B610E23FB180122BA
:1046B0001A802C4A3B69D3181B7801333A68D31807
:1046C0001B781B0299B2274A3B69D3181B781A1C26
:1046D0003B689B181B789BB20A1C13439AB20C23AD
:1046E000FB181A800E23FB181B88002B15D07B6942
:1046F000FE2B01D9002330E07B695A1C7A615B00F4
:104700007A68D3180E22BA180C21791809881180FA
:104710000E22BA1812881A8007E00C23FB181B8897
:10472000114A934201D0002317E03B6901333B61FA
:104730003B690C2BBDD93B681B781A1C40231340E6
:104740000AD07B69FE2B01D9002306E07B695B0060
:104750007A68D31800221A800123181CBD4606B0BF
:1047600080BDC04630D80000FFFF000080B588B093
:1047700000AFF860B960191CFB1D1A70BB1D0A1C44
:104780001A70BB680D33BA1D12781A70BB680B33F0
:104790000F221A70BB680C3300221A70BB681A33E0
:1047A00000221A70BB681B3300221A70FB1D1B7895
:1047B0005A1E131C5B009B189B009B18FB61162361
:1047C000FB1800221A800023BB611623FB181B88EC
:1047D000284A934209D0FB695A1CFA615B00FA68C7
:1047E000D2181623FB1812881A80234ABB69D318E3
:1047F0001B781A1CBB689B181622BA181288D2B2F2
:104800001A701D4ABB69D3181B780133BA68D318D4
:104810001622BA181288120A92B2D2B21A7016234D
:10482000FB181B88002B04D11623FB1801225242CF
:104830001A80BB690133BB61BB690C2BC5D9162338
:10484000FB181B880B4A934206D0FB695B00FA6891
:10485000D3181B88002B05D1FB1DFA1D12784021AF
:104860000A431A70BB68FA1D12781A70BD4608B068
:1048700080BDC046FFFF000030D8000080B58CB07E
:1048800000AFF860B9607A603B60FA68BB68101CE2
:10489000191C0B22FEF7B2FF3B68052B31D93B6890
:1048A000FB6128E07B689A1C7A602222BA181B8878
:1048B00013800023BB621BE0FB695A002223FB1814
:1048C0001B8801210B40D318FB612223FB182222F5
:1048D000BA18128852081A80FA6980235B021340C2
:1048E00003D0FB693B4A5340FB61BB6A0133BB62A7
:1048F000BB6A0F2BE0D97B681B88002BD2D1FB69E8
:104900003B600723BB623B68DBB20F221340DAB285
:104910002F23FB1830321A702F23FB181B78392BEA
:1049200006D92F23FB182F22BA18127807321A70D3
:10493000BB6A5A1EBA621422BA182F217918097854
:10494000D1543B681B093B603B68002BDBD114232F
:10495000FA18BB6AD3187E221A7000237B6217E014
:10496000FA687B6AD3181B78802B0ED9FA687B6AA9
:10497000D3181B78FF2B08D0BB6A5A1E7B6A9A4259
:1049800000D10FE07B6A01337B627B6A01337B627B
:104990007A6ABB6A9A4205D2FA687B6AD3181B7896
:1049A000202BDDD17B6A5A1C7A62FA68D218BB6A66
:1049B000072B06D8BB6A591CB96214217918CB5C45
:1049C00000E0202313707B6A072BEBD9BD460CB0A7
:1049D00080BDC0462110010080B584B000AF786072
:1049E0000F23FB1800221A700B23BB600F23FB1848
:1049F0001B78DAB25208DB011343D9B27B685A1C28
:104A00007A601A780F23FB188A181A70BB68013B6A
:104A1000BB60BB68002BE9D10F23FB181B78181C67
:104A2000BD4604B080BDC04690B587B000AF786089
:104A30001723FC187B68181C0021FFF7A3FB031C3D
:104A400023701723FB181B78002B03D01723FB18A8
:104A50001B78DBE01423FB18FF221A701523FB18C8
:104A60001422BA1812781A707B68012252421A84F2
:104A70007B681A687B681B6917217C18101C191C3D
:104A8000FEF780FF031C23701723FB181B78002BF5
:104A900000D0B8E07B685B693B611623FB183A697C
:104AA00012781A701623FB181B78002B04D11723D9
:104AB000FB1804221A70A6E03B690B331A780F2307
:104AC000FB183F210A401A701623FB181B78E52BB0
:104AD0000AD00F23FB181B78082213400DD00F2398
:104AE000FB181B780F2B08D01523FB18FF221A7018
:104AF0007B68012252421A8476E00F23FB181B7850
:104B00000F2B45D17B68DB69002B00D16CE01623AD
:104B1000FB181B784022134016D01423FB183A6967
:104B2000527B1A701623FB181622BA1812784021ED
:104B30008A431A701523FB181622BA1812781A70B5
:104B40007B68DA887B681A841623FA181523FB1809
:104B500012781B789A4216D13B690D331B781422C8
:104B6000BA1812789A420ED17B68DA693B69101C38
:104B7000191CFFF705FD031E05D01523FB181B7834
:104B8000013BDAB200E0FF221523FB181A702BE07C
:104B90001523FB181B78002B0BD13B69181CFFF762
:104BA0001BFF031C1A1C1423FB181B78934200D113
:104BB00029E07B689B690B331B781A1C0123134087
:104BC0000AD17B689B693A69101C191C0B22FEF7FD
:104BD00049FE031E00D116E01523FB18FF221A70B0
:104BE0007B68012252421A841723FC187B68181C28
:104BF0000021FFF749FB031C23701723FB181B78C8
:104C0000002B00D134E71723FB181B78181CBD4676
:104C100007B090BD90B587B000AF786039601523BC
:104C2000FB18FF221A701423FB18FF221A70172397
:104C3000FB1804221A70B2E07B681A687B681B6953
:104C400017217C18101C191CFEF79CFE031C2370F6
:104C50001723FB181B78002B00D0A5E07B685B694D
:104C60003B611623FB183A6912781A701623FB1859
:104C70001B78002B04D11723FB1804221A7093E031
:104C80003B690B331A780F23FB183F210A401A7037
:104C90001623FB181B78E52B11D01623FB181B7865
:104CA0002E2B0CD00F23FB181B7820229343083B9C
:104CB0005A425341DBB21A1E3B689A4204D0152374
:104CC000FB18FF221A705BE00F23FB181B780F2BD9
:104CD00040D11623FB181B784022134016D0142312
:104CE000FB183A69527B1A701623FB181622BA1861
:104CF000127840218A431A701523FB181622BA181D
:104D000012781A707B68DA887B681A841623FA187E
:104D10001523FB1812781B789A4216D13B690D3384
:104D20001B781422BA1812789A420ED17B68DA697D
:104D30003B69101C191CFFF7A5FC031E05D01523A9
:104D4000FB181B78013BDAB200E0FF221523FB18A9
:104D50001A7015E01523FB181B78002B0AD13B694C
:104D6000181CFFF739FE031C1A1C1423FB181B78B0
:104D7000934204D07B68012252421A8414E013E06B
:104D80001723FC187B68181C0021FFF77DFA031C11
:104D900023701723FB181B78002B00D004E07B68DE
:104DA0001B69002B00D047E71723FB181B78002B4B
:104DB00002D07B6800221A611723FB181B78181C8D
:104DC000BD4607B090BDC04690B58DB000AF7860CD
:104DD0007B689B693B627B68DB69FB610C23FA188B
:104DE0003B6A101C191C0C22FEF708FD0C23FB1853
:104DF000DB7A1A1C012313403BD03B6A0B330022A1
:104E00001A707B680022DA610123BB6217E0386AFE
:104E10000C23F918FA69BB6AFFF730FD2F23FC1841
:104E20007B68181CFFF700FE031C23702F23FB1860
:104E30001B78002B00D005E0BB6A0133BB62BB6A64
:104E4000632BE4D9BB6A642B01D10723CFE02F2366
:104E5000FB181B78042B03D02F23FB181B78C6E00C
:104E60003B6A0B330C22BA18D27A1A707B68FA6943
:104E7000DA610C23FB18DB7A1A1C0223134015D0CD
:104E80000023BB6202E0BB6A0133BB62BB6A5B000A
:104E9000FA69D3181B88002BF5D1BB6A1933181C8B
:104EA0000D2103F0D5FF031C7B6201E001237B622F
:104EB0002F23FC187A687B6A101C191CFFF7B6FABE
:104EC000031C23702F23FB181B78002B56D17B6A01
:104ED000013B7B627B6A002B50D07B68DB881A1C0D
:104EE0007B6AD31A2F22BC187A68101C191CFFF792
:104EF00049F9031C23702F23FB181B78002B3DD18D
:104F00007B689B691B22BC18181CFFF765FD031CFE
:104F100023707B681A687B681B692F217C18101C22
:104F2000191CFEF72FFD031C23702F23FB181B7881
:104F3000002B00D022E07B68D8697B6859697B6AC6
:104F4000DAB21B23FB181B78FFF710FC7B681B6889
:104F500001221A712F23FC187B68181C0021FFF70F
:104F600093F9031C23702F23FB181B78002B05D10A
:104F70007B6A013B7B627B6A002BCAD12F23FB1823
:104F80001B78002B30D17B681A687B681B692F2146
:104F90007C18101C191CFEF7F5FC031C23702F2332
:104FA000FB181B78002B1FD17B685B69181C002144
:104FB0002022FEF73FFC7B685A697B689B69101CC6
:104FC000191C0B22FEF71AFC7B685B690C331A1C58
:104FD0007B689B690B331B7818210B40DBB2137085
:104FE0007B681B6801221A712F23FB181B78181C81
:104FF000BD460DB090BDC04690B585B000AF78609D
:105000007B68DB88BB607B681B8C2D4A934202D097
:105010007B681B8C00E0BB680F22BC187A68101CF0
:10502000191CFFF7AFF8031C23700F23FB181B7824
:10503000002B3ED17B681A687B681B690F217C18A6
:10504000101C191CFEF79EFC031C23700F23FB1879
:105050001B78002B00D023E07B685B69181C0021C3
:105060002022FEF7E7FB7B685B69E5221A707B680C
:105070001B6801221A717B68DB881A1EBB689A4282
:1050800000D30DE00F23FC187B68181C0021FFF7EC
:10509000FBF8031C23700F23FB181B78002BC9D0CF
:1050A0000F23FB181B78042B03D10F23FB180222BC
:1050B0001A700F23FB181B78181CBD4605B090BD55
:1050C000FFFF000090B589B000AF786039603B68A1
:1050D0000933BB617B681B69002B00D180E07B68D2
:1050E0005B69FB600023FB6143E0FB695A1CFA61CA
:1050F000FA68D2181723FB1812781A701723FB18B6
:105100001B78202B00D134E01723FB181B78052BCC
:1051100003D11723FB18E5221A70FB69092B04D170
:10512000BB695A1CBA612E221A701723FB181B7810
:10513000402B17D91723FB181B785A2B12D8FB6862
:105140000C331B781A1CFB69082B01D9102300E0D3
:105150000823134006D01723FB181722BA18127819
:1051600020321A70BB695A1CBA611722BA18127819
:105170001A70FB690A2BB8D9FB68DA7A3B681A7295
:10518000FB681F331B781A06FB681E331B781B0451
:105190001343FA681D32127812021343FA681C3264
:1051A00012781A433B681A60FB6819331B781B029C
:1051B0009AB2FB6818331B789BB213439BB29AB226
:1051C0003B689A80FB6817331B781B029AB2FB6816
:1051D00016331B789BB213439BB29AB23B68DA80BA
:1051E000BB6900221A703B689B69002B5DD00023CD
:1051F000FB613B689B69BB617B681B69002B4FD0DF
:105200003B68DB69002B4BD07B681B8C284A9342A0
:1052100046D07B68DB693B6136E00A23FC180A2331
:10522000FB181B88181C002102F0AAFE031C238017
:105230000A23FB181B88002B02D10023FB612FE0FF
:105240000A23FB181B88FF2B0BD9FB695A1CFA6138
:10525000BA69D3180A22BA181288120A92B2D2B2C4
:105260001A703B68DB695A1EFB699A4202D8002318
:10527000FB6115E0FB695A1CFA61BA69D3180A226E
:10528000BA181288D2B21A703B699A1C3A610A2283
:10529000BA181B8813800A23FB181B88002BBCD16B
:1052A000BA69FB69D31800221A70BD4609B090BDD7
:1052B000FFFF000090B58BB000AF786039603B68AD
:1052C0001B683B6102E03B6901333B613B691B7832
:1052D0002F2BF8D03B691B785C2BF4D07B68DB6903
:1052E000FB6000237B617B69BB61BB695A1CBA61AF
:1052F0003A69D3181A782423FB181A802423FB1840
:105300001B881F2B00D888E02423FB181B882F2B19
:1053100000D182E02423FB181B885C2B00D17CE0A9
:105320007B69FE2B01D9062337E22423FB182422B4
:10533000BA181288FF210A401A802423FB181B8800
:10534000DBB2802B3BD92423FB181B88DBB2FF2B5D
:1053500035D0BB695A1CBA613A69D2182723FB18A9
:1053600012781A702723FB181B78402B04D92723A7
:10537000FB181B785A2B15D92723FB181B78602B99
:1053800004D92723FB181B787A2B0BD92723FB186A
:105390001B78802B04D92723FB181B78FF2B01D106
:1053A0000623FAE12423FB181B881B0299B227234A
:1053B000FB181B789AB22423FB188A181A8024231E
:1053C000FC182423FB181B88181C012102F0D8FDAF
:1053D000031C23802423FB181B88002B01D10623E8
:1053E000DBE12423FB181B887F2B0BD82423FB181D
:1053F0001B88BC4A101C191CFEF75AFA031E01D068
:105400000623CAE17B695A1C7A615B00FA68D318EB
:105410002422BA1812881A8067E73A69BB69D21841
:105420003B681A602423FB181B881F2B01D8042219
:1054300000E000222623FB181A7018E07B69AA4AB4
:10544000944663445B00FA68D2182423FB18128840
:105450001A802423FB181B88202B05D02423FB183B
:105460001B882E2B00D005E07B69013B7B617B69AB
:10547000002BE3D17B69002B01D106238DE17B69F1
:105480005B00FA68D31800221A807B689B69181C9D
:1054900020210B22FEF7CEF90023BB6102E0BB699D
:1054A0000133BB61BB695B00FA68D3181B88202BF2
:1054B000F5D0BB695B00FA68D3181B882E2BEED0A1
:1054C000BB69002B07D02623FB182622BA181278B6
:1054D00003210A431A7002E07B69013B7B617B690F
:1054E000002B09D07B69804A944663445B00FA68CC
:1054F000D3181B882E2BEFD100233B622723FB18E8
:1055000000221A700823FB61BB695A1CBA615B0058
:10551000FA68D2182423FB1812881A802423FB1857
:105520001B88002B00D1E3E02423FB181B88202BD1
:1055300008D02423FB181B882E2B0CD1BA697B6959
:105540009A4208D02623FB182622BA181278032183
:105550000A431A70C4E03A6AFB699A4203D2BA69F4
:105560007B699A422AD1FB690B2B08D12623FB18B1
:105570002622BA18127803210A431A70B8E0BA69D1
:105580007B699A4207D02623FB182622BA18127884
:1055900003210A431A70BA697B699A4200D9A7E0CD
:1055A0007B69BB6108233B620B23FB612723FB184C
:1055B0002722BA18127892001A7091E02423FB185F
:1055C0001B887F2B16D92423FB181B88181C02F07C
:1055D0002BFD031C2422BC18181C002102F0D0FC57
:1055E000031C23802623FB182622BA1812780221D6
:1055F0000A431A702423FB181B88FF2B1DD9FB6953
:105600005A1E3B6A9A420AD82623FB182622BA1849
:10561000127803210A431A70FB693B6260E07B68E1
:105620009A693B6A591C3962D3182422BA18128825
:10563000120A92B2D2B21A7047E02423FB181B88D8
:10564000002B09D02423FB181B88284A101C191C86
:10565000FEF72EF9031E0CD02423FB185F221A80BC
:105660002623FB182622BA18127803210A431A703F
:105670002BE02423FB181B88402B0DD92423FB1877
:105680001B885A2B08D82723FB182722BA18127810
:1056900002210A431A7018E02423FB181B88602B90
:1056A00013D92423FB181B887A2B0ED82723FB1829
:1056B0002722BA18127801210A431A702423FB18F2
:1056C0002422BA181288203A1A807B689A693B6AA9
:1056D000591C3962D3182422BA181288D2B21A700F
:1056E00012E7C04640D80000FFFFFF7F4CD8000003
:1056F0007B689B691B78E52B03D17B689B6905223E
:105700001A70FB69082B06D12723FB182722BA1829
:10571000127892001A702723FB181B780C22134072
:105720000C2B06D02723FB181B7803221340032BD6
:1057300007D12623FB182622BA18127802210A4321
:105740001A702623FB181B78022213401DD1272331
:10575000FB181B7803221340012B07D12623FB18CB
:105760002622BA18127810210A431A702723FB1830
:105770001B780C221340042B07D12623FB1826226A
:10578000BA18127808210A431A707B689B690B3398
:105790002622BA1812781A700023181CBD460BB0C6
:1057A00090BDC04690B585B000AF786039603B6869
:1057B0001B782F2B03D03B681B785C2B02D13B68F6
:1057C00001333B607B6800229A603B681B781F2B8B
:1057D0000CD80F23FC187B68181C0021FEF7D2FCA4
:1057E000031C23707B6800225A6154E00F23FC18CD
:1057F0007A683B1C101C191CFFF75CFD031C23700E
:105800000F23FB181B78002B00D044E00F23FC185B
:105810007B68181CFFF708F9031C23707B689A69E2
:105820000E23FB18D27A1A700F23FB181B78002B5B
:1058300010D00F23FB181B78042B0AD10E23FB1862
:105840001B780422134004D10F23FB1805221A7081
:1058500021E020E00E23FB181B780422134000D027
:1058600019E07B685B69BB60BB680B331B781A1C53
:105870001023134004D10F23FB1805221A700AE0ED
:105880007B681A68BB68101C191CFEF729FE021CF5
:105890007B689A60AAE70F23FB181B78181CBD468B
:1058A00005B090BD80B586B000AF786001235B4243
:1058B0003B617B681B68002B31D07B681B687B6178
:1058C00002E07B6901337B617B691B781F2B03D965
:1058D0007B691B783A2BF4D17B691B783A2B1CD15E
:1058E0007B681B68FB60FB685A1CFA601B78303BC6
:1058F000BB60BB68092B0ED8FA687B699A420AD153
:10590000BB68002B07D1BB683B617B6901337B61BE
:105910007B687A691A603B6902E000233B613B695E
:10592000181CBD4606B080BD80B582B000AF78605F
:1059300039607B6800221A717B6801225242DA6268
:105940007A683B68101C191CFEF71CF8031E01D076
:10595000032344E07B68244A9B5C1B0299B27B686A
:10596000224A9B5C9BB20A1C13439BB21BB2204A87
:10597000934201D0022332E07B6869229B5C1A06C5
:105980007B6868215B5C1B0413437A686721525C67
:10599000120213437A686621525C13431B021B0AEE
:1059A000144A934201D1002319E07B6885229B5C55
:1059B0001A067B6884215B5C1B0413437A6883218D
:1059C000525C120213437A688221525C13431B0219
:1059D0001B0A084A934201D1002300E00123181C4E
:1059E000BD4602B080BDC0462F0200002E0200005E
:1059F00055AAFFFF4641540090B597B000AFF8603C
:105A0000B960FB1D1A70FB6800221A60BB68181C85
:105A1000FFF748FF031CFB63FB6B002B01DA0B2332
:105A2000B8E2CF4BFA6B9200D358BB63BB6B002B31
:105A300001D10C23AEE2FB68BA6B1A60BB6B1B781A
:105A4000002B1CD0BB6B5B783722BC18181CFDF7F1
:105A5000F9FD031C23703723FB181B780122134028
:105A60000DD1FB1D1B78002B07D03723FB181B78AB
:105A70000422134001D00A238CE200238AE2BB6B8C
:105A800000221A70FB6BDAB2BB6B5A70BB6B5B788F
:105A90003722BC18181CFDF7C9FD031C23703723DF
:105AA000FB181B780122134001D0032372E2FB1D77
:105AB0001B78002B07D03723FB181B7804221340D8
:105AC00001D00A2366E200233B655723FC18BA6B1A
:105AD0003B6D101C191CFFF727FF031C2370572375
